:020000040800F2
:1000000068060020450100084D0100084F01000866
:1000100051010008530100085501000800000000CC
:100020000000000000000000000000005701000870
:1000300059010008000000005B0100085D01000894
:100040005F0100085F0100085F0100085F01000810
:100050005F0100085F010008D90100085F01000886
:100060005F0100085F0100085F0100085F010008F0
:100070005F0100085F0100085F0100085F010008E0
:100080005F0100085F0100085F0100085F010008D0
:100090005F0100085F0100085F0100085F010008C0
:1000A0005F0100085F0100085F0100085F010008B0
:1000B000511500085F0100085F0100085F0100089A
:1000C0005F0100085F0100085F0100085F01000890
:1000D0005F010008B91500085F0100085F01000812
:1000E0005F0100085F0100085F0100085F01000870
:1000F0005F0100085F0100085F0100085F01000860
:100100005F0100085F0100085F0100085F0100084F
:100110005F0100085F0100085F0100085F0100083F
:100120005F0100085F0100085F0100085F0100082F
:10013000DFF80CD000F018F8004800473D18000820
:10014000680600200648804706480047FEE7FEE7AD
:10015000FEE7FEE7FEE7FEE7FEE7FEE7FEE7FEE777
:10016000F114000831010008064C074D06E0E06874
:1001700040F0010394E8070098471034AC42F6D3EE
:10018000FFF7DAFFA8180008C81800080246092976
:1001900002DA4B1CD9B202E0531CDAB20021022A67
:1001A00003DB042901DB0022002141EA0213D8B25B
:1001B00070470246092902DA4B1CD9B202E0531CEF
:1001C000DAB20021062A03DB012901DB002200212B
:1001D00041EA0213D8B2704710B5012000F018F8B8
:1001E000012809D100F00EF804480078401C0349AA
:1001F000087000200249087010BD000001000020B6
:10020000020000200149086070470000140401400A
:1002100001460020034A12680A400AB1012000E0AA
:1002200000207047140401402DE9F04102460025EA
:100230000026002000230024002791F803C00CF0C2
:100240000F0591F803C00CF0100CBCF1000F03D0A7
:1002500091F802C04CEA050591F800C0BCF1000F0E
:1002600031D0146800202BE04FF0010C0CFA00F3A1
:10027000B1F800C00CEA03069E4220D183004FF083
:100280000F0C0CFA03F7BC4305FA03FC4CEA040418
:1002900091F803C0BCF1280F06D14FF0010C0CFA05
:1002A00000FCC2F814C00AE091F803C0BCF1480F8A
:1002B00005D14FF0010C0CFA00FCC2F810C0401C34
:1002C0000828D1D31460B1F800C0BCF1FF0F34DDB1
:1002D000546800202EE000F1080C4FF0010808FAE5
:1002E0000CF3B1F800C00CEA03069E4221D1830052
:1002F0004FF00F0C0CFA03F7BC4305FA03FC4CEA71
:10030000040491F803C0BCF1280F05D100F1080CDA
:1003100008FA0CF8C2F8148091F803C0BCF1480F39
:1003200007D100F1080C4FF0010808FA0CF8C2F8E8
:100330001080401C0828CED35460BDE8F081000036
:1003400008B54FF47C40ADF8000010208DF8030094
:1003500003208DF8020069460E48FFF765FFF8207C
:10036000ADF8000048208DF8030003208DF802004E
:1003700069460948FFF758FF012008490860084905
:10038000C1F8B4010549083108600549C1F8BC014C
:1003900008BD0000000C014000080140B08121426E
:1003A000008021420246002093680B400BB10120DF
:1003B00000E0002070474161704701617047000014
:1003C00010B500F067F9A22000F036F900F08EF9C0
:1003D000022000F031F900F089F900F05BF9A32068
:1003E00000F02AF900F082F9012000F0FEF84149FE
:1003F0000870012000F0F9F800F07F003E49087015
:10040000012000F0F2F800F03F003C4908700120A4
:1004100000F0EBF800F03F0039490870012000F0CF
:10042000E4F800F0070037490870012000F0DDF81B
:1004300000F09F0034490870002000F0D6F83349DE
:10044000087000F03DF92B480078802805DB29482A
:10045000007800F07F00274908702848007800F0F5
:100460000F002B49087025480078000929490870B9
:100470002148007800F00F00274908701E480078D6
:100480000009264908701B48007800F00F00244935
:100490000870184800780009224908701D48007843
:1004A000022808DB1A480078052804DB00201949D7
:1004B00008701749087019480078062808DB1648A4
:1004C0000078012804DB00201449087012490870E4
:1004D00014480078062808DB11480078012804DB5E
:1004E0000020104908700E49087000200E4908606D
:1004F00010BD00003000002031000020320000203C
:100500003300002034000020350000203600002099
:1005100038000020370000203A0000203900002079
:100520003C0000203B000020B881214270B5044609
:100530000D4600F0AFF8A22000F07EF800F0D6F8EB
:10054000E0B200F079F800F0D1F8E8B200F074F809
:1005500000F0CCF800F0B4F870BD10B500F042FF28
:1005600000F0FEFE012000F019FF012000F0E6FE81
:1005700008210020FFF7DAFF1F210120FFF7D6FF37
:1005800082210D20FFF7D2FF00210E20FFF7CEFFC2
:1005900010BD10B5002000F0D1FE00F023FF0020B8
:1005A00000F0FCFE022001F0CBF8012000F0C6FEB6
:1005B000022001F0C5F8002000F0C0FE10BD10B50B
:1005C000002000F0BBFE00F00DFF012000F0E6FE71
:1005D000022001F0B5F8012000F0B0FE022001F089
:1005E000AFF8002000F0AAFE10BD70B5054600244B
:1005F00000F0E6FE002614E0002000F09FFE02203E
:1006000001F09EF8012000F099FE6006040E00F053
:10061000B9FE08B1601CC4B2012001F091F8701C51
:10062000C6B2082EE8DB15B9FFF7C9FF01E0FFF7F6
:10063000B0FF204670BD000070B5044600F0D2FE49
:10064000002000F07BFE00251EE0E0091049087044
:100650000846007818B9002000F0A0FE02E0012052
:1006600000F09CFE6006040E022001F069F80120F3
:1006700000F064FE022001F063F8002000F05EFE4E
:10068000022001F05DF86D1C082DDED370BD000066
:100690005A00002010B500F0A5FE012000F07EFEFB
:1006A000012000F04BFE042001F04AF8002000F089
:1006B00075FE042001F044F8002000F03FFE10BD5C
:1006C00010B500F08FFE002000F038FE002000F092
:1006D00065FE042001F034F8012000F02FFE012017
:1006E00000F05CFE042001F02BF810BD10B50024D2
:1006F00000F066FE012000F051FE012001F020F81C
:10070000012000F01BFE012001F01AF806E0641C35
:10071000FA2C03D9FFF7D4FF012010BD00F032FE00
:100720000028F4D100F00AFE0020F6E700B5FD48ED
:10073000006801280BD17020FB4908700020FB499C
:1007400008700420FA4908706020FA490870F548DA
:100750000068A0B97020F44908702020F34908709F
:100760000020F34908706020F24908701420F24913
:1007700008701020F14908700420F1490870F14810
:10078000007801285CD14020EF4908700020EF4933
:1007900008707020E44908702020E44908700020A7
:1007A000E3490870EA48807900F0FB00E849887165
:1007B0006020E04908701420DF4908701020DF49EC
:1007C00008700420E3490870E3480078E3490870A2
:1007D000E3480078E3490870E3480078E34908708B
:1007E000E3480078E3490870E3480078E34908707B
:1007F000E3480078E349087000F0C0FB41F27070F4
:1008000000F093FFE0480078D4490870DF48007892
:10081000D4490870DE480078D4490870DD48007873
:10082000D4490870DC480078D4490870DB48007867
:10083000D449087000F0A2FB41F2707000F075FF1F
:10084000C0480078022841D1C3480078C3490870E5
:10085000C3480078C3490870C3480078C34908708A
:10086000C3480078C3490870C3480078C34908707A
:10087000C3480078C349087000F080FB22E0A94813
:10088000001D006838B9B6480178B3480078FFF712
:100890007DFCC3490870A3480830006838B9B048E7
:1008A0000178AD48007800F026FDBD490870BC48CD
:1008B000007800F00F00AA490870B94800780009D4
:1008C000A54908709F4800780228D8D09D48007834
:1008D00003284CD1A0480078A0490870A0480078AF
:1008E000A0490870A0480078A0490870A048007886
:1008F000A0490870A0480078A0490870A048007876
:10090000A049087000F03AFB41F2707000F00DFF52
:100910009148007891490870914800789149087091
:100920009D480078954908709C4800789549087062
:1009300000F024FB41F2707000F0F7FE13E07948FC
:10094000001D006828B98A48017887480078FFF7B9
:100950001DFC74480830006828B985480178824831
:10096000007800F0C8FC774800780328E7D0754885
:10097000007804284CD1844800787849087083486E
:100980000078784908708248007878490870814872
:100990000078784908707848007878490870784875
:1009A00000787849087000F0E9FA41F2707000F0C0
:1009B000BCFE774800786D490870764800786D492C
:1009C0000870754800786D490870744800786D4962
:1009D000087000F0D3FA41F2707000F0A6FE13E048
:1009E0005048001D006828B96848017866480078BA
:1009F000FFF7CCFB4B480830006828B96348017802
:100A00006148007800F077FC4E4800780428E7D071
:100A10004C48007805284CD15B4800784F49087055
:100A20005A4800784F490870594800784F49087073
:100A3000584800784F4908704F4800784F4908706F
:100A40004F4800784F49087000F098FA41F27070F2
:100A500000F06BFE4C480078404908704B48007825
:100A6000404908704C480078444908704B48007869
:100A70004449087000F082FA41F2707000F055FEAF
:100A800013E02848001D006828B942480178404812
:100A90000078FFF78EFB23480830006828B93D48EE
:100AA00001783B48007800F037FC2648007805289C
:100AB000E7D024480078062874D1334800782749C5
:100AC0000870324800782749087031480078274973
:100AD000087030480078274908702748007827496F
:100AE0000870274800782749087000F047FA41F25B
:100AF000707000F01AFE24480078184908702348E6
:100B00000078184908702248007818490870214870
:100B100000781849087000F031FA41F2707000F066
:100B200004FE53E08C0121424200002043000020DB
:100B3000440000204B0000204C0000204D0000200D
:100B40004F000020040000203F0000204000002053
:100B5000880000204E0000201C00002028000020FB
:100B600022000020290000201D0000202A00002073
:100B7000230000202B000020200000202C0000205B
:100B8000260000202D0000201E0000202400002050
:100B90001F00002025000020210000202700002049
:100BA0000700002016E03448006828B9334801786F
:100BB00033480078FFF7EAFA2F48001D006828B98B
:100BC0002E4801782E48007800F095FB2D480078DB
:100BD0000628E8D02B48007807284BD12A4800780F
:100BE0002A4908702A4800782A4908702A4800785B
:100BF0002A4908702A4800782A4908702A4800784B
:100C00002A4908702A4800782A49087000F0B6F985
:100C100041F2707000F089FD1B4800781B49087094
:100C20001B4800781B4908701B4800781B49087056
:100C30001B4800781B49087000F0A0F941F2707061
:100C400000F073FD12E00C48006828B918480178DC
:100C500015480078FFF79AFA0748001D006828B980
:100C6000134801781048007800F045FB05480078EB
:100C70000728E8D000BD0000900121422600002096
:100C800020000020040000201E000020280000207A
:100C900024000020290000201F0000202A0000203E
:100CA000250000202B000020210000202C00002027
:100CB000270000202D00002010B58D4800788D49B8
:100CC000097808438C49097808438C490978084316
:100CD0008749087008464078894909780843894956
:100CE00009780843884909780843814948700846CB
:100CF00080788649097808438549097808438549F9
:100D0000097808437A4988700846C078824909788A
:100D100008437749C87008460079804A80490978B5
:100D2000491C515C08437F49097808437E4909788A
:100D300008437E49097808436D490871084640799F
:100D40001146774A1278895C084369494871084618
:100D50008079724A76490978491C515C0843754983
:100D600009780843744909780843744909780843A5
:100D70007349097808437349097808435C498871C5
:100D80000846C07911466A4A1278895C0843584976
:100D9000C8710846007A614A6B490978491C515C60
:100DA00008436A4909780843694909780843694949
:100DB000097808434E4908720846407A1146624A4B
:100DC0001278895C08434A4948720846807A534A37
:100DD00061490978491C515C084360490978084316
:100DE000434988720846C07A11465B4A1278895C8A
:100DF00008433F49C8720846007B484A5849097869
:100E0000491C515C084357490978084356490978F9
:100E10000843374908730846407B1146504A127808
:100E2000895C0843324948730846807B3B4A4F49F6
:100E30000978491C515C08434D49097808434D49DC
:100E4000097808432A4988730846C07B1146474AF7
:100E50001278895C08432649C873002407E0244AB5
:100E6000115D454A105D00F0A7FC601CC4B2102C57
:100E7000F5DB1F48007900F07F001D490871084626
:100E8000407900F0C00048710846807900F07F008A
:100E900088710846C07900F0C000C8710846007A21
:100EA00000F07F0008720846407A00F0C0004872E7
:100EB0000846807A00F07F0088720846C07A00F009
:100EC000C000C8720846007B00F07F000873084627
:100ED000407B00F0C00048730846807B00F07F0034
:100EE00088730846C07B00F0C000C87310BD0000C6
:100EF000880000204A0000205000002058000020F8
:100F00004700002048000020490000204500002044
:100F10004F00002054000020460000206B000020FD
:100F2000380000204B0000204C000020560000201C
:100F3000370000203F000020430000204400002034
:100F40004000002055000020390000204100002012
:100F50004E000020570000203A00002042000020F0
:100F60003B00002051000020520000203C000020E7
:100F7000530000204D0000205B00002010B5934876
:100F800000789349097808439249097808439249BF
:100F9000097808438D490870084640788F490978D8
:100FA00008438F49097808438E49097808438749DF
:100FB0004870084680788C49097808438B4909783D
:100FC00008438B4909780843804988700846C078EF
:100FD0008849097808437D49C870084600798649E0
:100FE0000978012202EB4101844A515C084384499B
:100FF00009780843834909780843834909780843F5
:1010000072490871084640797B49097812F8111035
:1010100008436E494871084680797C490978012265
:1010200002EB4101754A515C08437949097808434C
:101030007849097808437849097808437749097855
:101040000843774909780843604988710846C079A0
:101050006E49097812F8111008435C49C8710846B6
:10106000007A70490978012202EB4101634A515C20
:1010700008436D49097808436C49097808436C496D
:1010800009780843514908720846407A6549097849
:1010900012F8111008434D4948720846807A654994
:1010A0000978012202EB4101544A515C084362492C
:1010B00009780843454988720846C07A5D4909782D
:1010C00012F8111008434149C8720846007B5B4979
:1010D0000978012202EB4101484A515C0843584912
:1010E000097808435749097808433849087308467E
:1010F000407B5249097812F811100843334948736C
:101100000846807B50490978012202EB41013B4AA5
:10111000515C08434D49097808434D490978084313
:101120002A4988730846C07B4749097812F811108C
:1011300008432649C873002407E0244A115D454A44
:10114000105D00F039FB601CC4B2102CF5DB1F48A9
:10115000007900F07F001D4908710846407900F0D1
:10116000C00048710846807900F07F008871084609
:10117000C07900F0C000C8710846007A00F07F0016
:1011800008720846407A00F0C00048720846807A2B
:1011900000F07F0088720846C07A00F0C000C87274
:1011A0000846007B00F07F0008730846407B00F093
:1011B000C00048730846807B00F07F0088730846B3
:1011C000C07B00F0C000C87310BD00008800002084
:1011D0004A00002050000020580000204700002056
:1011E0004800002049000020450000204F0000205A
:1011F0005400002046000020290000206B00002041
:101200004B0000204C000020560000202800002049
:101210003F00002043000020440000204000002048
:10122000550000202A000020410000204E00002030
:10123000570000202B000020420000202C0000203E
:1012400051000020520000202D00002053000020FB
:101250004D0000205B00002001460020034A50683A
:1012600020F44040084350607047000000100240E6
:1012700029B1064A52690243044B5A6104E0034A09
:1012800052698243014B5A617047000000100240CE
:1012900029B1064AD2690243044BDA6104E0034AE9
:1012A000D2698243014BDA617047000000100240AE
:1012B00029B1064A92690243044B9A6104E0034A49
:1012C00092698243014B9A6170470000001002400E
:1012D00010B501210320FFF7DBFF012140F2FD30B3
:1012E000FFF7E6FF4FF40040FFF7B6FF0121084685
:1012F000FFF7BEFF10BD0246002902DD4B1ED9B22A
:1013000002E0531EDAB2092112B909B902220321FF
:1013100041EA0213D8B270470246002902DD4B1E93
:10132000D9B202E0531EDAB2092112B909B9022278
:10133000032141EA0213D8B27047000010B50446F9
:10134000012C04D181020548FFF737F805E024B9E4
:101350004FF480610148FFF72EF810BD000C0140EA
:1013600008B54FF48060ADF8000010208DF8030040
:1013700003208DF8020069460148FEF755FF08BDBD
:10138000000C014010B54FF400610348FFF70AF864
:101390000446204610BD0000000C014010B5044674
:1013A000012C04D1C1020548FFF707F805E024B974
:1013B0004FF400610148FEF7FEFF10BD000C014034
:1013C00008B54FF40060ADF8000048208DF8030028
:1013D00003208DF8020069460148FEF725FF08BD8D
:1013E000000C014008B54FF40060ADF80000142077
:1013F0008DF8030003208DF8020069460148FEF7CE
:1014000013FF08BD000C014010B500F001F810BD3D
:101410000CB50020019000903348006840F4803003
:101420003149086000BF3048006800F40030009087
:101430000198401C0190009818B90198B0F5A06F70
:10144000F1D12948006800F4003010B1012000906B
:1014500001E0002000900098012843D12348006853
:1014600040F01000214908600846006820F00300A1
:1014700008600846006840F0020008601A484068AA
:10148000194948600846406848600846406840F48A
:10149000806048600846406820F47C104860084638
:1014A000406840F4E81048600846006840F08070EA
:1014B000086000BF0C48006800F000700028F9D0F8
:1014C0000948406820F00300074948600846406822
:1014D00040F00200486000BF0348406800F00C0084
:1014E0000828F9D10CBD0000001002400020024085
:1014F00010B51348006840F0010011490860084623
:101500004068104908400E494860084600680E4986
:1015100008400B4908600846006820F480200860F5
:101520000846406820F4FE0048604FF41F008860C1
:10153000FFF76AFF4FF000600449086010BD00002B
:10154000001002400000FFF8FFFFF6FE08ED00E08B
:1015500010B50121880700F01EF8012813D10121E0
:10156000800700F015F80848007860B10748007857
:10157000401C0649087008460078032803DB002059
:1015800008700149087010BD010000200200002011
:10159000CA430282704730B502460020002300246F
:1015A000158A05EA0103958905EA010413B10CB116
:1015B000012000E0002030BD10B5002401212348A7
:1015C00000F064F830B1214800F097F801211F487D
:1015D00000F044F808211D4800F058F830B11B48CD
:1015E00000F08BF808211A4800F038F8022117485B
:1015F00000F04CF830B1154800F07FF80221134894
:1016000000F02CF840F22551104800F04CF8D8B109
:1016100020210E4800F022F840F225510B4800F03E
:1016200026F80A4800F069F8C4B20A480A4909785D
:10163000445409480078401C07490870084600785F
:101640003C2801DD0020087010BD0000003801407A
:1016500000480040640100208400002001F4007272
:10166000B2F5007F00D100BFCA430280704710B5B9
:101670000022002340F66A14A14200D100BF0A12E2
:1016800001249440A3B2DC43048010BD0246002034
:10169000B1F5007F00D100BF13880B400BB10120D2
:1016A00000E00020704770B50246002400230025AA
:1016B000002040F66A16B14200D100BFC1F34215C6
:1016C00001F01F03012606FA03F3012D02D19689CA
:1016D000334006E0022D02D1168A334001E0968A9B
:1016E00033400C12012606FA04F41688344013B174
:1016F0000CB1012000E0002070BD01468888C0F3D5
:1017000008007047C1F308028280704702E008C8F1
:10171000121F08C1002AFAD170477047002001E06B
:1017200001C1121F002AFBD17047014605E06E225D
:1017300000E0521E002AFCD1491E0029F7D1704753
:10174000002106E00A2100BF0A00A1F1010399B2BD
:10175000FAD10200A0F10100F4D1704730B505467E
:101760000120134908601349C1F8BC011049091D43
:101770000860402000F042F801200E49C1F8B8018D
:10178000C02000F03BF8002403E0284600F036F8C3
:10179000641C102CF9D301200549091D08608C2018
:1017A00000F02CF801200349C1F8B80130BD000059
:1017B000B48121420080214230B505460C4601200B
:1017C0000C4908600C49C1F8BC010A49091D0860B0
:1017D000442000F013F801200749C1F8B801284659
:1017E00000F00CF8204600F009F801200149091D1D
:1017F000086030BDB48121420080214200220E4B9E
:101800001A60002115E000220B4B1B1D1A6000F02E
:10181000010222B10122084B1B1F1A6003E00022C3
:10182000054B1B1F1A600122034B1B1D1A60401041
:10183000491C0829E7D37047B8812142FFF748FDCA
:10184000FEF77EFDFEF789FE01201349086013496B
:10185000C1F8BC011049091D08600320FFF7CEFF45
:10186000FF20FFF77BFF01200D49087013E045F2D0
:10187000AA510C48FFF746FF0948007818B9FEF74F
:101880009FFDFFF719FAFEF751FF05480078012880
:1018900001D1FFF773FBEAE7B481214200802142C6
:1018A0000000002000380140C81800080000002097
:1018B000880000000C17000850190008880000205C
:1018C000E00500001C1700080000000000000000F8
:1018D0000000000000000000000000000000000008
:1018E00000000000000000000000000000000000F8
:1018F00000000000000000000203000506070800C9
:1019000000000000000000000000000000000000D7
:1019100000000000000000000000000000000000C7
:10192000000000C0C1C2C3C4C5C6C7C8C9CACBCCA9
:10193000CDCECF3F00180036803C8019802D802FFF
:101940008038003F803D8000000000000000000063
:0400000508000131BD
:00000001FF
