:020000040800F2
:10000000C006002045010008ED32000889130008F1
:1000100009320008D1090008BB41000800000000B7
:100020000000000000000000000000004136000851
:10003000D509000800000000753300089139000858
:100040005F0100085F0100085F0100085F01000810
:100050005F0100085F0100085F0100085F01000800
:100060005F010008D9090008050A00085F010008BF
:100070005F0100085F0100085F0100085F010008E0
:100080005F0100085F0100085F0100085F010008D0
:100090005F0100085F0100085F010008550A0008C1
:1000A0005F0100085F0100085F0100085F010008B0
:1000B0005F0100085F010008713A00085F01000855
:1000C0005F0100085F0100085F0100085F01000890
:1000D0005F0100087D3E00085F0100085F01000825
:1000E0005F0100085F0100085F0100085F01000870
:1000F0005F0100085F0100085F0100085F01000860
:100100005F0100085F0100085F0100085F0100084F
:100110005F0100085F0100085F0100085F0100083F
:100120005F0100085F0100085F0100085F0100082F
:10013000DFF80CD000F0A6FA00480047554300084D
:10014000C00600200648804706480047FEE7FEE755
:10015000FEE7FEE7FEE7FEE7FEE7FEE7FEE7FEE777
:10016000D1390008310100082DE9FE4F804681EAAF
:100170000300C00F0C46009021F0004123F0004521
:10018000B8EB0200A94105D24046214690461C46E4
:100190000B46024623F00040104347D0270DC7F31B
:1001A0000A00C3F30A510290401A019040286BDA0A
:1001B000C3F3130040F4801B0098924620B1002343
:1001C000D2EB030A63EB0B0B01985946C0F14002D6
:1001D000504600F0A1F906460D4650465946019A90
:1001E00000F0A9F910EB08006141002487EA1152E0
:1001F00084EAE7731A4340D0009A62B3019A012A55
:100200004FEA075215DC001B61EB02014FF0004280
:1002100002EA0752CDE90042001C41F58011324646
:100220002B4600F0E0F903B0BDE8F08F40462146D0
:10023000F9E7001B61EB0201001C41F58013001877
:100240005B412018A2F5001747EB030140EAD57087
:10025000B6196D4111E06D084FEA360645EAC075E2
:100260004FEA0752001B61EB0201001C41F58011AF
:1002700049084FEA30000019514132462B4603B07D
:10028000BDE8F04F00F0A0B9009801224000002323
:10029000D0EB020263EBE073009821464FEAE07472
:1002A000B8EB000061EB0401E9E783F000435BE792
:1002B00081F0004158E72DE9FE4F81EA030404F084
:1002C000004421F0004100944FF0000B23F0004364
:1002D00050EA01045ED052EA03045BD0C3F30A542F
:1002E000C1F30A552C44A4F2F3340194A0FB025448
:1002F000C1F3130141F48011C3F3130343F48013DA
:1003000001FB024400FB034E840A970A44EA81542D
:1003100047EA8357A4FB076802958D0A05FB07850A
:100320004FEA932C04FB0C542705029D4FEA065814
:1003300047EA1637B5EB08056EEB070C870E920EF1
:1003400047EA811742EA8312A7FB0201B6EB0B01D1
:1003500064EB00042B0D43EA0C335E1844EB1C5095
:10036000DA465146E7FB0201C5F313044FEA0B33AB
:1003700043EA14534FEA0432019C43EA0603A4F112
:100380000C040294009CCDE900B400F02CF903B0F9
:10039000BDE8F08F00200146F9E72DE9F04D81EA34
:1003A000030404F0004B21F0004514464FF0000A0E
:1003B00023F0004150EA050220D054EA01021DD08A
:1003C000C5F30A570246C5F31303C1F31300C1F383
:1003D0000A5640F4801543F48013A7EB0608101B5F
:1003E000D64608F2FD3873EB050002D308F1010888
:1003F00001E092185B41B8F1000F03DA00200146DA
:10040000BDE8F08D00204FF48011064684460EE0D2
:10041000171B73EB050705D3121B63EB050306439C
:100420004CEA010C49084FEA300092185B4150EA4F
:100430000107EDD152EA030012D082EA040083EAF8
:100440000501084305D0101BAB4106D20122002351
:1004500006E000224FF0004302E06FF0010253106B
:100460001AEB06004CEB085110EB0A0041EB0B01B4
:10047000BDE8F04D00F0A8B80EB540F2334102914E
:100480000021CDE900110A460B4600F0ACF803B09C
:1004900000BD00F0004230F000400AD0C10D01F56F
:1004A0006071C0F3160042EA0151C20840071143CF
:1004B000704700200146704701F0004330B421F03E
:1004C000004150EA010206D00A0DA2F56072C1F3A4
:1004D0001301002A02DC30BC00207047440F44EABC
:1004E000C104C100E01830BC00EBC25000F035B8C8
:1004F000002801DBC0F10040002901DBC1F100410F
:1005000081427047002801DBC0F10040002901DB77
:10051000C1F1004188427047202A04DB203A00FAEA
:1005200002F1002070479140C2F1200320FA03F34A
:10053000194390407047202A06DBCB17203A41FA36
:1005400002F043EAE07306E041FA02F3D040C2F160
:10055000200291400843194670470029A8BF704700
:10056000401C490008BF20F00100704710B4B0FAE9
:1005700080FC00FA0CF050EA010404BF10BC704784
:1005800049B1CCF1200421FA04F411FA0CF118BF9E
:10059000012121430843A3EB0C01CB1D4FEA00616D
:1005A0004FEA102042BF002010BC704700EBC35040
:1005B00010440029A4BF10BC7047401C490008BF6C
:1005C00020F0010010BC704710B5141E73F1000438
:1005D00008DA401C41F1000192185B411A4301D135
:1005E00020F0010010BD2DE9F04D92469B4611B15F
:1005F000B1FA81F202E0B0FA80F220329046FFF7C1
:100600008BFF04460F4640EA0A0041EA0B015346BD
:100610005A46084313D0114653EA010019D0C8F1D5
:100620004002504600F040F805460E4650465946F6
:100630004246FFF771FF084305D0012004E0204641
:100640003946BDE8F08D0020054346EAE0762C43AC
:1006500037430A986305E40AA0EB08000022FD0A6C
:1006600044EA47540A3002D500200146E9E7010573
:1006700010196941DDE9084500196941BDE8F04DEF
:10068000A2E70000064C074D06E0E06840F00103D9
:1006900094E8070098471034AC42F6D3FFF74CFDBE
:1006A0006444000884440008202A04DB203A21FA2C
:1006B00002F00021704721FA02F3D040C2F120027B
:1006C000914008431946704770B58C1810F8015BCB
:1006D00015F0070301D110F8013B2A1106D110F8DB
:1006E000012B03E010F8016B01F8016B5B1EF9D1DF
:1006F0002B0705D40023521E0DD401F8013BFAE765
:1007000010F8013BCB1A921C03E013F8015B01F8CF
:10071000015B521EF9D5A142D8D3002070BD21B192
:10072000826842F00102826003E0826822F00102E6
:1007300082607047014600208A6802F004020AB114
:10074000012000E0002070470146C86C80B270476D
:100750000246002013680B400BB1012000E000208E
:100760007047014600208A6802F008020AB10120A1
:1007700000E000207047000030B502460020002352
:1007800050680F4C20400D790C6844EA0524204342
:10079000506090680B4C2040D1E902542C434D79B5
:1007A00044EA450420439060D06A20F470000C7C39
:1007B000641EE4B2234340EA0350D06230BD00001F
:1007C000FFFEF0FFFDF7F1FFF0B504460D460020F7
:1007D0000021092D11DDE068A5F10A0606EB4607A8
:1007E000072606FA07F18843A5F10A0606EB460636
:1007F00003FA06F10843E0600CE0206905EB4507C9
:10080000072606FA07F1884305EB450603FA06F1C9
:1008100008432061072A0FDA606B561E06EB860735
:100820001F2606FA07F18843561E06EB860605FAD0
:1008300006F10843606322E00D2A0FDA206BD61F11
:1008400006EB86071F2606FA07F18843D61F06EB3C
:10085000860605FA06F10843206310E0E06AA2F17B
:100860000D0606EB86071F2606FA07F18843A2F15C
:100870000D0606EB860605FA06F10843E062F0BDB8
:10088000816841F008018160704721B1826842F4BB
:10089000A002826003E0826822F4A00282607047B6
:1008A000816841F0040181607047000000B587B0A5
:1008B00001214FF4017002F08BFD4FF4004002F073
:1008C0005BFD0120ADF8180000208DF81B0003200F
:1008D0008DF81A0006A9184800F056FA0020019079
:1008E0008DF808008DF809004FF460200390002077
:1008F000049001208DF8140001A91048FFF73CFF77
:1009000001210E48FFF70BFF0C48FFF7B9FF00BFAE
:100910000A48FFF726FF0028FAD10848FFF7C0FF72
:1009200000BF0648FFF706FF0028FAD1012103485F
:10093000FFF7ABFF07B000BD0008014000240140F5
:100940000246092902DA481CC1B202E0501CC2B2B8
:100950000021022A03DB042901DB0022002141EAF5
:100960000210024B1870184600787047BA01002038
:100970000246092902DA481CC1B202E0501CC2B288
:100980000021062A02DB09B90022002141EA0210F7
:10099000024B18701846007870470000BA0100201A
:1009A0000246092902DA481CC1B202E0501CC2B258
:1009B0000021092A03DB092901DB0022002141EA89
:1009C0000210024B1870184600787047BA010020D8
:1009D00000BFFEE77047000010B5082000F0A4F843
:1009E00040B10A2003F0FAFB0448006810B9012066
:1009F00003490870082000F091F810BD0C01214255
:100A00000D02002010B501200C49087000200C498F
:100A100008800C490880102000F086F850B10A20A8
:100A200003F0DCFB0848006820B901200749087082
:100A300007490870102000F071F810BD0602002070
:100A40006602002064020020100121420C020020F6
:100A5000B801002010B500202649088026490880EA
:100A6000802000F061F8A0B124480178012088437B
:100A7000224908700846007810B900202049087003
:100A80000A2003F0ABFB1F48006810B901201E4983
:100A90000870802000F042F8402000F045F880B156
:100AA0000A2003F09BFB1748001F006848B901208B
:100AB000134908701549087015480078401C1449FE
:100AC0000870402000F02AF8202000F02DF868B1CE
:100AD0000A2003F083FB0B480838006830B9012076
:100AE000074908700B4908700B490870202000F076
:100AF00015F810BD6602002064020020B501002038
:100B0000060200201C012142090200200A020020E6
:100B1000B60100200B020020B70100200149086047
:100B20007047000014040140014600200022074BDA
:100B30001B6803EA0102054B14331B680B4013B119
:100B40000AB1012000E000207047000000040140CD
:100B5000002123498279002A3AD00A4612680368A4
:100B60009A430B461A600A1D126803689A430B1DCC
:100B70001A60027911440A6803681A430A60184A25
:100B80000832126803689A43154B08331A601A1D1D
:100B9000126803689A43124B0C331A604279102A88
:100BA0000ED11A1F126803681A430D4B08331A60DE
:100BB0001A1D126803681A43094B0C331A600DE0C2
:100BC0000749427911440A6803681A430A6005E03C
:100BD000027911440A6803689A430A60704700006A
:100BE0000004014010B556480078092802DB0020B7
:100BF000534908705348007801284DD15048007877
:100C0000092190FBF1F201FB1200092843D2DFE831
:100C100000F0050E1720292E33383D008821C22010
:100C200003F056FB2021C32003F052FB33E04821A0
:100C3000C22003F04DFB2021C32003F049FB2AE032
:100C40002821C22003F044FB2021C32003F040FBF5
:100C500021E01821C22003F03BFB2021C32003F038
:100C600037FB18E03021C32003F032FB13E02821CA
:100C7000C32003F02DFB0EE02421C32003F028FB4A
:100C800009E02221C32003F023FB04E02121C3203B
:100C900003F01EFB00BF00BF2A48007800284DD19A
:100CA00027480078092190FBF1F201FB1200092886
:100CB00043D2DFE800F0050E1720292E33383D001F
:100CC0008021C22003F004FB2021C32003F000FB9D
:100CD00033E04021C22003F0FBFA2021C32003F0BF
:100CE000F7FA2AE02021C22003F0F2FA2021C320E3
:100CF00003F0EEFA21E01021C22003F0E9FA2021EE
:100D0000C32003F0E5FA18E03021C32003F0E0FA35
:100D100013E02821C32003F0DBFA0EE02421C320D6
:100D200003F0D6FA09E02221C32003F0D1FA04E04F
:100D30002121C32003F0CCFA00BF00BF10BD00008A
:100D4000620200200802002030B500228B071C0F31
:100D50000F2303FA04F20B4B8C1053F82430934307
:100D6000084C8D1044F8253023468C1053F824305D
:100D70008C07240F00FA04F42343024C8D1044F82E
:100D8000253030BD080001402DE9F0410246002524
:100D90000026002000230024002791F803C00CF057
:100DA0000F0591F803C00CF0100CBCF1000F03D03C
:100DB00091F802C04CEA050591F800C0BCF1000FA3
:100DC00031D0146800202BE04FF0010C0CFA00F336
:100DD000B1F800C00CEA03069E4220D183004FF018
:100DE0000F0C0CFA03F7BC4305FA03FC4CEA0404AD
:100DF00091F803C0BCF1280F06D14FF0010C0CFA9A
:100E000000FCC2F814C00AE091F803C0BCF1480F1E
:100E100005D14FF0010C0CFA00FCC2F810C0401CC8
:100E20000828D1D31460B1F800C0BCF1FF0F34DD45
:100E3000546800202EE000F1080C4FF0010808FA79
:100E40000CF3B1F800C00CEA03069E4221D18300E6
:100E50004FF00F0C0CFA03F7BC4305FA03FC4CEA05
:100E6000040491F803C0BCF1280F05D100F1080C6F
:100E700008FA0CF8C2F8148091F803C0BCF1480FCE
:100E800007D100F1080C4FF0010808FA0CF8C2F87D
:100E90001080401C0828CED35460BDE8F0810000CB
:100EA00008B54FF47C40ADF8000010208DF8030029
:100EB00003208DF8020069460E48FFF765FFF82011
:100EC000ADF8000010208DF8030003208DF802001B
:100ED00069460848FFF758FF01200749086007499D
:100EE000C1F8B4010449083108600449C1F8BC01E3
:100EF00008BD0000000C0140B08121420080214269
:100F0000F0B50A46002300240021002500F0004629
:100F1000B6F1004F02D11D4EF16901E01B4E716820
:100F2000C0F3034583B200F44016B6F5401F08D164
:100F300021F07061154E766826F07066134F7E6062
:100F400012E000F48016B6F5801F06D1032606FADB
:100F500005F4A14341F0706106E0460D360103FA45
:100F600006F6B14341F0706122B1460D360103FA35
:100F700006F6314300F00046B6F1004F02D1034EB1
:100F8000F16101E0014E7160F0BD00000000014020
:100F90000246002093680B400BB1012000E00020C6
:100FA0007047416170470161704700002DE9F041D1
:100FB00005460C4600260723012229460F48FFF765
:100FC00003FC002713E001210C48FFF75EFC00BF83
:100FD00002210A48FFF7BCFB0028F9D00748FFF7B9
:100FE000B3FB0644052003F0F9F8781CC7B2A7420A
:100FF000E9DBB6FBF4F080B2BDE8F08100240140EB
:101000002DE9FF472C480078C82853DD00202A49E5
:1010100008701421FFF7CAFF284908800846008895
:10102000FFF72AFA04464FF06632254BFFF743F9E3
:101030000646FFF741FA2349086008460068FFF7B3
:1010400028FA06460022204BFFF732F904460D46E7
:101050001C480068FFF71DFA22462B46CDE9000127
:10106000FFF79BF980460022184BFFF724F9CDE9E2
:101070000201FFF721FA164908604FF0000A03E069
:101080000AF1010000F0FF0ABAF1640F07DC114910
:1010900051F82A000E490968FFF734FAF0D90D49D2
:1010A00051F82A000A490968FFF722FA02D80A48CB
:1010B00080F800A0BDE8FF8761020020000000204A
:1010C00066664A3F0400002000001440008047404C
:1010D000080000200C000020F801002010B502F0EC
:1010E0009DFA02F059FA012002F074FA012002F090
:1010F00041FA0821002000F0BFF81F21012000F074
:10110000BBF882210D2000F0B7F800210E2000F07E
:10111000B3F80120094908600949C1F8BC01074931
:10112000091D0860442003F0F5F801200449C1F8C6
:10113000B801002003F09EF810BD0000B4812142E8
:101140000080214210B500F0AFF9A22000F07EF936
:1011500000F0D6F9022000F079F900F0D1F900F0A2
:10116000A3F9A32000F072F900F0CAF9012000F001
:1011700047F935490870012000F042F900F07F007E
:1011800032490870012000F03BF900F03F0030497F
:101190000870012000F034F900F03F002D4908707C
:1011A000012000F02DF900F007002B490870012004
:1011B00000F026F900F09F0028490870002000F098
:1011C0001FF92749087000F085F91F48007880282A
:1011D00005DB1D48007800F07F001B4908701C48A3
:1011E000007800F00F001F490870194800780009C6
:1011F0001D4908701548007800F00F001B49087061
:101200001248007800091A49087017480078022827
:1012100008DB14480078052804DB00201249087018
:101220001049087012480078062808DB0F4800783B
:10123000012804DB00200E4908700C4908700020CA
:101240000C49086010BD00000E0200200F020020B3
:1012500010020020110200201202002013020020C0
:10126000140200201602002015020020180200209F
:1012700017020020B881214270B504460D4600F0E7
:1012800013F9A22000F0E2F800F03AF9E0B200F021
:10129000DDF800F035F9E8B200F0D8F800F030F9E8
:1012A00000F018F970BD000010B53049097801F060
:1012B0007F0000F06BF82D4908702D49097801F086
:1012C0007F0000F063F82A4908702A49097801F084
:1012D0003F0000F05BF8274908702749097801F0C2
:1012E000070000F053F8244908702449097801F0F8
:1012F0009F0000F04BF82149087000F0D5F8A220BB
:1013000000F0A4F800F0FCF8022000F09FF800F0D4
:10131000F7F81648007800F099F800F0F1F8144852
:10132000007800F093F800F0EBF81248007800F035
:101330008DF800F0E5F81248007800F087F800F02A
:10134000DFF80D48007800F081F800F0D9F80B487C
:10135000007800F07BF800F0D3F80A48007800F03D
:1013600075F800F0CDF800F0B5F810BD0E020020C1
:101370000F020020100200201202002013020020A1
:10138000110200201402002000BFFEE701460020E9
:1013900005E000F11002D0B2A1F10A02D1B20A298F
:1013A000F7DA4218D0B2704710B5002002F0E2F828
:1013B00002F034F9002002F00DF9022002F034FFAF
:1013C000012002F0D7F8022002F02EFF002002F0E8
:1013D000D1F810BD10B5002002F0CCF802F01EF9D3
:1013E000012002F0F7F8022002F01EFF012002F0B7
:1013F000C1F8022002F018FF002002F0BBF810BD77
:1014000070B50546002402F0F7F8002614E000202D
:1014100002F0B0F8022002F007FF012002F0AAF863
:101420006006040E02F0CAF808B1601CC4B20120C4
:1014300002F0FAFE701CC6B2082EE8DB15B9FFF701
:10144000C9FF01E0FFF7B0FF204670BD70B504464C
:1014500002F0E4F8002002F08DF800251EE0E0091B
:10146000104908700846007818B9002002F0B2F858
:1014700002E0012002F0AEF86006040E022002F045
:10148000D3FE012002F076F8022002F0CDFE00200B
:1014900002F070F8022002F0C7FE6D1C082DDED3AA
:1014A00070BD00003802002010B502F0B7F801202E
:1014B00002F090F8012002F05DF8042002F0B4FE82
:1014C000002002F087F8042002F0AEFE002002F0B7
:1014D00051F810BD10B502F0A1F8002002F04AF852
:1014E000002002F077F8042002F09EFE012002F0B6
:1014F00041F8012002F06EF8042002F095FE10BDC4
:1015000010B5002402F078F8012002F063F8012001
:1015100002F08AFE012002F02DF8012002F084FE84
:1015200006E0641CFA2C03D9FFF7D4FF012010BD9C
:1015300002F044F80028F4D102F01CF80020F6E78D
:1015400008B50121042001F043FFF820ADF80000A8
:1015500004208DF8030003208DF80200694602483C
:10156000FFF712FC08BD00000008014010B5F54867
:10157000007801287ED1F4490860F448D0F8980139
:10158000012801D1FFF72EFBFFF7DCFDF0480078C2
:1015900078B9F04800780A2190FBF1F201FB1200C3
:1015A000ED490870EB4800780A2190FBF1F0EB4917
:1015B000087002F061FBEA48007801287ED1202003
:1015C000E84908700020E8490870E848007900F010
:1015D000F700E6490871E648007800285BD1DA4850
:1015E000001F006801281ED11820E2490870002061
:1015F000E1490870DD48007B00F09F00DB4908737B
:101600000020DE490870D948007B00F0E700D74988
:1016100008730020DA490870D448807B00F09F00EE
:10162000D249887337E00020D6490870D64908703F
:10163000D6490870CD48407800F0C000CB494870CA
:101640000020D3490870C948007800F01F00C7493E
:1016500008700120BC4908600020BC49C1F8940111
:10166000B94908390860091F0860C2490870BF48B5
:10167000007800E064E100F0E700BC4908706020F9
:10168000BD4908700020BD490870B848007B00F0D3
:10169000E700B6490873B648007801280BD100204E
:1016A000B5490870B148007B00F09F00AF4908734E
:1016B0001820B2490870B748007800E0E4E0B64965
:1016C000097840EA0110B54908700846007800F032
:1016D0000F000978091101EB810100EB4100B049CD
:1016E0000870084600789B490978884207DDAC48B5
:1016F000007898490978401AAA49087006E0A84875
:101700000078A9490978401AA649087091480078DC
:10171000802805DA8F480078A1490978884216DDCB
:101720000020944908709148407800F0E7008F4904
:10173000487060209049087000208349091F0860A4
:101740008249C1F8900180490C390860C1E088489D
:101750000078002862D193480078052824DA012017
:10176000794908607949C1F894010020764908391F
:101770000860091F086020208249087018208249EB
:1017800008700020814908707848407800F0F8001F
:101790007649487000207E4908707448007800F04F
:1017A0001F007249087039E07E4800780A281EDA66
:1017B0000120654908606549C1F89401624908390A
:1017C00008600020091F086020206E49087018205A
:1017D0006D49087007206D49087000206C49087039
:1017E0006248007800F01F006049087016E0012090
:1017F000554908605549C1F89401534908390860B2
:10180000091F086020205F49087018205E49087091
:1018100007205E490870E0205D4908705448007850
:10182000012856D14B4800785D49097888422CDD63
:101830000020504908704D48007800F0E7004B49FF
:10184000087000204F4908704F4908704F490870D0
:101850004648407800F0C0004449487000204C4998
:1018600008704248007800F01F00404908700120CD
:101870003549086000203549C1F8940132490839DA
:1018800008603249C1F88C0123E001202E4908602C
:101890002E49C1F8940100202B4908390860091F1E
:1018A0000860202037490870182037490870002048
:1018B000364908702D48407800F0F8002B494870F0
:1018C0000020334908702948007800F01F0027499C
:1018D00008702348007898BB0020224908702348EC
:1018E000007900F0DF002149087108201E490870C6
:1018F00001201549086000201449C1F894011249DB
:10190000083908601B4908701848007800F0E700A3
:101910001649087000201B4908701B4908701B49B4
:1019200008701248407800F0C0001049487000204C
:10193000174908700D48007800F01F000B49087027
:1019400010BD0000B5010020988121420080214295
:1019500006020020F8010020EF010020EE01002027
:10196000FE0100202102002022020020700200203F
:10197000040200202E0200202F020020300200204E
:10198000310200202502002026020020270200202C
:1019900028020020EA010020E9010020B401002013
:1019A000E8010020FA010020F901002047480078F2
:1019B00000287DD1464908704648007900F0DF00D4
:1019C00044490871082044490870002043490870C0
:1019D0004048007A00F0F7003E490872082040496C
:1019E000087001203F49087000203F4908703948BD
:1019F000007900F0BF003749087100203B490870AA
:101A00003448007900F0EF0032490871002038496D
:101A100008703048007A00F08F002E4908720020CC
:101A200034490870344908703449087029484078AE
:101A300000F0C0002749487000203149087025484F
:101A4000007800F01F002349087000202D4908701D
:101A50002048007800F007001E49087008464078CA
:101A600000F0C00048700020274908701948007B2A
:101A700000F09F001749087300202449087015489A
:101A8000007B00F0E700134908730020204908702C
:101A9000204908700F48807800F00F000D498870C9
:101AA0000846C07800F0C000C87000201A4900E065
:101AB0000AE008601949C1F894011749083908601B
:101AC000091F08601649087070470000B501002022
:101AD0002102002070020020220200202C0200209F
:101AE0002D020020080200201D0200201E020020FE
:101AF0001F020020250200202602002027020020CD
:101B0000280200202E0200202F0200203002002098
:101B100023020020240200209881214200802142DB
:101B2000B601002010B5FE480088B0F5FA7F04DD4C
:101B30000020FC490870FC490870FB480078002828
:101B40007ED1FA4800780128FAD10020F8490870BF
:101B5000F848007900F0BF00F64908710020F64906
:101B60000870F448007900F0EF00F2490871002095
:101B7000F2490870EF48007A00F08F00ED490872D2
:101B8000EF48007800287CD1EE48007801284CD13D
:101B9000E44908700820EC4908700020EB490870FF
:101BA000E448807800F0F700E24988700020E849B6
:101BB0000870E8480078E849097840EA0110E749E8
:101BC0000870E4480178E4480078FEF7E9FEE3494C
:101BD00008700020DB490870E048007800F00F0032
:101BE000DC490870DD4800780009DB490870DB48F3
:101BF000007800F00F00D9490978091101EB810143
:101C000000EB4100D6490870FFF79CFAD1480078F4
:101C1000D4490870D0480078D3490870CF4800787C
:101C2000802802DD8020CD490870D0480078012846
:101C30004FD1BC4908700820C3490870002000E05B
:101C400063E0C2490870C2490870BA48807800F061
:101C5000F700B8498870BF480078BF49097840EA62
:101C60000110BE490870BB480178BB48007801F0FC
:101C700069FCBA4908700020BC490870B748007870
:101C800000E026E000F00F00B2490870B348007889
:101C90000009B1490870B148007800F00F00AF4961
:101CA0000978091101EB810100EB4100AC49087092
:101CB000FFF748FAA7480078AA490870A6480078B4
:101CC000A9490870A5480078042802DA0420A3492D
:101CD0000870FFF737FAA6480078A6490870A648AA
:101CE0000078A6490870A6480078A6490870A6485A
:101CF0000078A649087097480078A549087096486A
:101D00000078A449087001F0FFF88748007801289E
:101D10002DD100208C49087001208D49087085481C
:101D2000007A00F0F700834908720820874908709C
:101D3000FFF708FA904800788D49097840EA0110C9
:101D40008649087001F0F2FC934800780A2190FB64
:101D5000F1F201FB1200834908708F4800780A21D4
:101D600090FBF1F08049087000F04EFFC0E36E4830
:101D7000007803287ED10020734908706D48007AEE
:101D800000F0F7006B4908720820704908700120C4
:101D90006F490870FFF7D6F97B48007878490978D1
:101DA00040EA01106D49087066480078012833D177
:101DB0007548017872480078FEF7DAFD67490870C7
:101DC0000020604908707548007800F00F007349E2
:101DD0000978091101EB810100EB41006F4908709E
:101DE0005E48007800F00F005C490978091101EBAA
:101DF000810100EB41006A4908706A48007800F0F0
:101E00000F0068490978091101EB810100EB4100DD
:101E100064490870FFF748FA54480078012835D122
:101E2000594801785648007801F076FB4B49087014
:101E300000204E4908705948007800F00F005749BB
:101E40000978091101EB810100EB41005349087049
:101E50004248007800F00F0040490978091101EB71
:101E6000810100EB41004E4908704E48007800F0B7
:101E70000F0000E041E04B490978091101EB8101B5
:101E800000EB410047490870FFF70EFA464800781A
:101E9000012807D145480078401C444908700020BB
:101EA00041490870414800780A2190FBF1F040490F
:101EB0000870087800EBD0714910A0EB410111B116
:101EC000FFF740F906E0FFF73DF90A202C490870BA
:101ED0002D490870304800780A2190FBF1F201FB8F
:101EE0001200204908702C4800780A2190FBF1F07C
:101EF0001D49087000F088FE38E70B480078032879
:101F00007ED100201049087001201149087009484D
:101F1000007A00F0F7000749087208200B4949E0F1
:101F20006602002006020020B6010020B501002054
:101F30001D020020700200201E0200201F0200204F
:101F400004020020B70100202C0200202D020020F6
:101F500008020020EA010020E9010020B40100206D
:101F6000E8010020EF010020EE010020B801002070
:101F700015020020F001002016020020F1010020CF
:101F800017020020F201002018020020F3010020B7
:101F9000F5010020F4010020F801002010020020CB
:101FA0000F0200200E02002060020020000200202C
:101FB000FB0100200870FFF7C5F8FE4800780A21F1
:101FC00090FBF1F201FB1200FB490870F948007820
:101FD0000A2190FBF1F0F9490870F94800780128CE
:101FE00004D10020F7490870F5490870F6480078D8
:101FF000012804D1F34908700020F349087000E07B
:1020000069E0F2480078012807D1F1480078401CC7
:10201000EF4908700020ED490870ED4800780A216A
:1020200090FBF1F0EB490870E648007828BB08788F
:1020300000EBD0714910A0EB410161B16020E6498D
:1020400008700020E5490870E548007B00F0E700D3
:10205000E349087311E00020DF490870E048007B85
:1020600000F09F00DE4908730020DC490870DC485E
:10207000007B00F0E700DA490873D24800780128B5
:1020800026D1D449087800EBD0714910A0EB41016A
:1020900061B10020D0490870D148007B00F09F005A
:1020A000CF4908731820CD49087011E00020CA49B3
:1020B0000870CB48007B00F09F00C94908730020DE
:1020C000C6490870C648007B00F0E700C4490873A1
:1020D00000F09AFD4AE6C348007804286DD100203C
:1020E000BD490870BE48007B00F09F00BC490873E2
:1020F0001820BA4908700020BB490870BB48007816
:10210000BB49097840EA0110BA490870AC48007828
:10211000012814D1B5480178B5480078FEF740FC95
:10212000B44908700020A64908700120B24908701F
:10213000B0480078142802DD1420AE490870A24887
:102140000078012814D1A9480178A948007801F045
:10215000F9F9A849087000209B4908700120A64998
:102160000870A4480078042802DA0420A149087005
:10217000A048007800F00F009C4908709D48007846
:1021800000099B4908709B48007800F00F009949AE
:102190000978091101EB810100EB410097490870B2
:1021A000FEF7D0FF91480078834908709048007886
:1021B0008249087000F028FDD8E58A480078052893
:1021C0007ED100208E49087001208E490870844815
:1021D000007A00F0F7008249087208208A490870E6
:1021E000FEF7B0FF734800780A2190FBF1F201FB83
:1021F0001200714908706F4800780A2190FBF1F0D5
:102200006E4908706E480078012804D100207F498B
:1022100008706B4908706C480078012804D17B492C
:10222000087000206849087068480078012807D1C4
:1022300067480078401C66490870002063490870B0
:10224000634800780A2190FBF1F0624908706F48FA
:10225000007888BB087800EBD0714910A0EB4101F1
:1022600079B140206A49087010206A49087000203E
:10227000694908705A48007A00F08F00584908727E
:102280001AE00020624908705548007900F0BF004C
:102290005349087100205F4908705148007900F0E7
:1022A000EF004F49087100205B4908704C48007AE4
:1022B00000F08F004A49087254480078012800E075
:1022C0003CE038D14349087800EBD0714910A0EBCD
:1022D0004101A9B100204E4908704148007900F041
:1022E000BF003F49087100204A4908703C48007906
:1022F00000F0EF003A4908717020474908701AE071
:102300000020434908703648007900F0BF00344986
:10231000087100203F4908703148007900F0EF0053
:102320002F49087100203C4908702D48007A00F0C0
:102330008F002B49087200F067FCF6E3294800780B
:10234000062836D10020354908702548807B00F0EA
:10235000EF00234988731D480078012807D11C48E5
:102360000078401C1A490870002018490870184865
:1023700000780A2190FBF1F016490870087800EB0C
:10238000D0714910A0EB410191B125480078254951
:1023900008702548007825490870254800782549A7
:1023A000087025480078254908702548007849E0DC
:1023B0004FE09EE0F8010020EF010020EE01002038
:1023C000B701002004020020B801002060020020B4
:1023D00000020020FB0100202F020020300200201C
:1023E00070020020B601002002020020ED01002052
:1023F000EC010020B401002003020020E8010020CD
:102400002C020020080200202D02002005020020DE
:102410001D0200201E0200201F0200202B020020AF
:10242000CA010020F0010020CF010020F1010020AE
:10243000CB010020F2010020D0010020F301002098
:10244000CE010020FE490870FE480078FE49087061
:1024500014E00A20FD490870FD490870FD48007825
:10246000FD490870FD480078FD490870FD48007876
:10247000F3490870F3480078F3490870FA48007887
:10248000FA49097840EA0110F9490870F9480078DA
:1024900001280AD1F4480178F4480078FEF750FA90
:1024A000F34908700020F3490870F34800780128C8
:1024B0000AD1ED480178ED48007801F017F8EC49B1
:1024C00008700020EC490870E948007800F00F001F
:1024D000E5490870E64800780009E4490870E248D8
:1024E0000078097840EA0110E449087000F00CFD1A
:1024F0001BE3E348007807287ED1E2480088B0F566
:10250000FA7F02DD0020DE4908700020DE490870F5
:10251000DE48807B00F0EF00DC498873DC480078FF
:10252000012807D1DB480078401CDA4908700020F8
:10253000D7490870D74800780A2190FBF1F0D649B6
:102540000870087800EBD0714910A0EB4101C1B1CF
:10255000C6480078BD490870C3480078BC49087077
:10256000BC480078BC490870BC480078BC49087079
:10257000BC480078B2490870B2480078B249087087
:1025800014E0BA480078B1490870B7480078B049FB
:1025900008700A20B0490870B1490870B148007845
:1025A000A7490870A7480078A7490870AB48007889
:1025B000A849097840EA0110AD490870AD48007893
:1025C00001280AD1A5480178A2480078FEF7D0F981
:1025D000A74908700020A7490870A748007801287B
:1025E0000CD19E4801789B48007800F095FFA049E7
:1025F00008700020A04900E015E008709C480078B1
:1026000000F00F0095490870994800780009914939
:10261000087092480078097840EA01109F490870D4
:1026200000F072FC81E29648007808287ED10020F4
:10263000954908709548807B00F0EF0093498873B6
:1026400093480078012807D192480078401C9149AE
:10265000087000208E4908708E4800780A2190FB8F
:10266000F1F08D490870087800EBD0714910A0EBAB
:102670004101C1B18A4800787449087089480078DE
:102680007349087088480078734908708748007853
:102690007349087073480078694908706948007880
:1026A0006949087014E00A20684908706849087090
:1026B0007D480078684908707C480078684908704F
:1026C000684800785E4908705E4800785E49087086
:1026D000744800787249097840EA0110644908702A
:1026E0006448007801280AD16E4801786C48007867
:1026F000FEF726F95E49087000205E4908705E48C2
:10270000007801280AD1674801786548007800F010
:10271000EDFE57490870002057490870544800786A
:1027200000F00F005F490870514800E00DE00078AC
:1027300000095B4908705B480078097840EA01109D
:102740005B49087000F0E0FBEFE14D480078092894
:1027500074D100204C4908704C48807B00F0EF0099
:102760004A4988734A480078012807D149480078C7
:10277000401C4849087000204549087045480078C9
:102780000A2190FBF1F044490870087800EBD07101
:102790004910A0EB4101C1B1414800782B490870B4
:1027A000404800782A4908703F4800782A49087054
:1027B0003E4800782A4908702A4800782049087065
:1027C000204800782049087014E0354800781F49F7
:1027D0000870344800781E4908700A201E490870A5
:1027E0001F4908701F48007815490870154800787F
:1027F000154908702D4800782B49097840EA0110E6
:102800001B4908701B48007801280AD12748017825
:1028100025480078FEF7ACF81549087000201549E6
:10282000087015480078012847D1204801781E48D3
:10283000007800F071FE0E4908703BE052E00000A5
:10284000F4010020D3010020F5010020F001002058
:10285000F1010020CB010020F2010020D001002076
:10286000F3010020CE010020CF010020CA0100208A
:10287000B4010020B7010020B8010020BB010020F6
:10288000B6010020660200202B020020700200200A
:102890006002002000020020FB010020BC0100209B
:1028A000CC010020D1010020CD010020D201002068
:1028B000BD01002000209D4908709D48007800F06F
:1028C0000F009C4908709A48007800099A490870DE
:1028D00098480078097840EA01109849087000F09B
:1028E00013FB22E1964800780A287DD10020954903
:1028F00008709548807B00F0EF00934988739348F7
:102900000078012807D192480078401C904908704F
:1029100000208E4908708E4800780A2190FBF1F063
:102920008C490870087800EBD0714910A0EB410188
:10293000C1B1894800788949087089480078894977
:102940000870894800788949087089480078894961
:102950000870894800788949087089480078894951
:10296000087014E00A207D4908707E4908707E488E
:1029700000787E4908707E4800787E4908707E485D
:1029800000787E4908707E4800787E490870744857
:1029900000787149097840EA0110654908707A4861
:1029A000007801280AD16E4801786B480078FDF75D
:1029B000C7FF5F4908700020734908705B480078C2
:1029C00001280AD1664801786348007800F08EFD3E
:1029D000574908700020554908705548007800F0A4
:1029E0000F005F49087000E00EE0514800780009D0
:1029F000594908705A480078097840EA011063493B
:102A0000087000F081FA90E04D4800780B287DD1E5
:102A100000204C4908704C48807B00F0EF004A4988
:102A200088734A480078012807D149480078401C3B
:102A300047490870002045490870454800780A2138
:102A400090FBF1F043490870087800EBD071491011
:102A5000A0EB4101C1B140480078404908704048AE
:102A60000078404908704048007840490870404864
:102A70000078404908704048007840490870404854
:102A800000784049087014E03348007833490870F2
:102A900033480078334908700A20344908703549B2
:102AA0000870354800783549087035480078354950
:102AB00008702F4800782C49097840EA01101C4919
:102AC00008703148007801280AD129480178264841
:102AD0000078FDF74DFF1649087000202A4908705C
:102AE0001248007801280AD1214801781E48007850
:102AF00000F012FD0E49087000200C4908700C48C7
:102B0000007800F00F001A49087000E00DE0084856
:102B1000007800091449087015480078097840EADF
:102B200001101B49087000F0EFF910BDB80100203A
:102B3000B4010020D2010020CD010020BE01002000
:102B4000B60100202B02002070020020600200204D
:102B500000020020FB010020D4010020F001002031
:102B6000D9010020F1010020D5010020F201002050
:102B7000DA010020F3010020CE010020F401002042
:102B8000D3010020F5010020B7010020C001002082
:102B9000C10100201548007801280FD014480078A2
:102BA00001280BD013480078012807D0124800787C
:102BB000012803D011480078012815D101201049BF
:102BC0000860104800880A280EDB00200D490880A4
:102BD0000B490860054908700549087005490870E7
:102BE0000549087005490870704700000902002077
:102BF0000A0200200B0200200C0200200D0200201F
:102C00009C8121426402002010B59C4800789C49B8
:102C1000097808439B49097808439B490978084388
:102C200096490870084640789849097808439849B9
:102C3000097808439749097808439049487008463D
:102C4000807895490978084394490978084394495C
:102C500009780843894988700846C07891490978FD
:102C600008438649C870904800784006000E8E4997
:102C70000870824800798D4A0978491C515C0843E4
:102C80008B49097808438B49097808438A490978B0
:102C900008438A49097808438949097808437749EC
:102CA00008710846407911467F4A1278895C0843CA
:102CB00072494871834800784006000E81490870C7
:102CC0006E488079794A0978491C515C08437E49ED
:102CD000097808437D49097808437D490978084304
:102CE000664988710846C0791146764A1278895C2F
:102CF00008436249C871774800784006000E75495C
:102D000008705E48007A694A0978491C515C08439A
:102D1000714909780843714909780843704909786D
:102D20000843564908720846407A1146694A1278A3
:102D3000895C0843514948726A4800784006000E91
:102D4000684908704D48807A584A0978491C515C96
:102D50000843654909780843484988720846C07A9B
:102D60001146604A1278895C08434449C8725F483A
:102D700000784006000E5D4908704048007B4B4AD1
:102D80000978491C515C0843594909780843594955
:102D900009780843394908730846407B1146534A6D
:102DA0001278895C084335494873534800784006D7
:102DB000000E514908703148807B3C4A0978491C13
:102DC000515C08434D49097808434D490978084347
:102DD0002A4988730846C07B1146474A1278895CA5
:102DE00008432649C873002407E0244A115D454A78
:102DF000105D01F06DFA601CC4B2102CF5DB1F48A9
:102E0000007900F07F001D4908710846407900F004
:102E1000C00048710846807900F07F00887108463C
:102E2000C07900F0C000C8710846007A00F07F0049
:102E300008720846407A00F0C00048720846807A5E
:102E400000F07F0088720846C07A00F0C000C872A7
:102E50000846007B00F07F0008730846407B00F0C6
:102E6000C00048730846807B00F07F0088730846E6
:102E7000C07B00F0C000C87310BD000070020020CD
:102E8000280200202E020020360200202502002009
:102E90002602002027020020230200202D0200200D
:102EA00032020020240200201502002049020020E6
:102EB0001D02002021020020220200201E0200200C
:102EC0003302002016020020290200202A020020DE
:102ED00034020020170200201F0200202C020020D4
:102EE000350200201802002020020020EE01002000
:102EF0002F02002030020020EF01002031020020CC
:102F00002B0200203902002010B59C4800789C4913
:102F1000097808439B49097808439B490978084385
:102F200096490870084640789849097808439849B6
:102F3000097808439749097808439049487008463A
:102F40008078954909780843944909780843944959
:102F500009780843894988700846C07891490978FA
:102F600008438649C870904800784006000E8E4994
:102F70000870824800798D4A0978491C515C0843E1
:102F80008B49097808438B49097808438A490978AD
:102F900008438A49097808438949097808437749E9
:102FA00008710846407911467F4A1278895C0843C7
:102FB00072494871834800784006000E81490870C4
:102FC0006E488079794A0978491C515C08437E49EA
:102FD000097808437D49097808437D490978084301
:102FE000664988710846C0791146764A1278895C2C
:102FF00008436249C871774800784006000E754959
:1030000008705E48007A694A0978491C515C084397
:10301000714909780843714909780843704909786A
:103020000843564908720846407A1146694A1278A0
:10303000895C0843514948726A4800784006000E8E
:10304000684908704D48807A584A0978491C515C93
:103050000843654909780843484988720846C07A98
:103060001146604A1278895C08434449C8725F4837
:1030700000784006000E5D4908704048007B4B4ACE
:103080000978491C515C0843594909780843594952
:1030900009780843394908730846407B1146534A6A
:1030A0001278895C084335494873534800784006D4
:1030B000000E514908703148807B3C4A0978491C10
:1030C000515C08434D49097808434D490978084344
:1030D0002A4988730846C07B1146474A1278895CA2
:1030E00008432649C873002407E0244A115D454A75
:1030F000105D01F0EDF8601CC4B2102CF5DB1F4828
:10310000007900F07F001D4908710846407900F001
:10311000C00048710846807900F07F008871084639
:10312000C07900F0C000C8710846007A00F07F0046
:1031300008720846407A00F0C00048720846807A5B
:1031400000F07F0088720846C07A00F0C000C872A4
:103150000846007B00F07F0008730846407B00F0C3
:10316000C00048730846807B00F07F0088730846E3
:10317000C07B00F0C000C87310BD000070020020CA
:10318000280200202E020020360200202502002006
:103190002602002027020020230200202D0200200A
:1031A0003202002024020020F00100204902002009
:1031B0001D02002021020020220200201E02002009
:1031C00033020020F1010020290200202A02002001
:1031D00034020020F20100201F0200202C020020F7
:1031E00035020020F301002020020020F40100201D
:1031F0002F02002030020020F501002031020020C3
:103200002B0200203902002000BFFEE70EB501218D
:10321000084600F0DDF803210020FDF795FD0421AC
:103220000020FDF791FD05210020FDF78DFD062111
:103230000020FDF789FD07210020FDF785FD08200E
:10324000FDF76CFC1020FDF769FC2020FDF766FC03
:103250004020FDF763FC8020FDF760FCF820009023
:1032600000208DF804000C208DF8050001208DF859
:1032700006006846FDF76CFC4FF4C06000F070F883
:1032800009208DF8080002208DF8090080208DF8B3
:103290000A0001208DF80B0002A800F029F84FF475
:1032A000C06000F05DF80A208DF8080002208DF85B
:1032B000090040208DF80A0001208DF80B0002A8BB
:1032C00000F016F84FF4C06000F04AF817208DF8AF
:1032D000080002208DF8090020208DF80A00012046
:1032E0008DF80B0002A800F003F80EBD7047000037
:1032F00070B5002100230F22C47804B3154C246854
:1033000004F4E064C4F5E064210AC1F10403CA4096
:10331000447804FA03F184781440214309010E4CE7
:103320000678A155047804F01F050124AC40057807
:103330006D11AD0005F1E025C5F8004109E0047804
:1033400004F01F050124AC40044D0678761145F8C1
:10335000264070BD0CED00E000E400E080E100E0FC
:1033600002490143024A1160704700000000FA055B
:103370000CED00E07047000001460020034A506851
:1033800020F44040084350607047000000100240A5
:1033900029B1064A52690243044B5A6104E0034AC8
:1033A00052698243014B5A6170470000001002408D
:1033B00029B1064AD2690243044BDA6104E0034AA8
:1033C000D2698243014BDA6170470000001002406D
:1033D00029B1064A92690243044B9A6104E0034A08
:1033E00092698243014B9A617047000000100240CD
:1033F00010B501210320FFF7DBFF012140F2FD3072
:10340000FFF7E6FF4FF40040FFF7B6FF0121084643
:10341000FFF7BEFF10BD000030B5002100220024E0
:1034200000232D4D6D6805F00C0121B1042905D054
:10343000082923D105E0294D056022E0274D0560CC
:103440001FE0254D6D6805F47012234D6D6805F47D
:103450008034022505EB92421CB9214D554305608D
:103460000BE01D4D6D6805F400351DB11C4D554335
:10347000056002E0194D5543056002E0174D0560F7
:1034800000BF00BF144D6D6805F0F0010909154D2E
:103490006B5C0568DD4045600F4D6D6805F4E061CB
:1034A000090A104D6B5C4568DD4085600A4D6D680A
:1034B00005F46051C90A0B4D6B5C4568DD40C56081
:1034C000054D6D6805F44041890B074D6B5CC5687F
:1034D000B5FBF3F5056130BD0010024000127A0023
:1034E00000093D00A0010020B0010020024612B9F1
:1034F00009B902220421002902DD481EC1B202E0FE
:10350000501EC2B2092141EA0210024B187018463F
:1035100000787047BA010020024612B909B90622A4
:103520000021002902DD481EC1B202E0501EC2B2D5
:10353000092141EA0210024B1870184600787047C2
:10354000BA0100200246002A03DC002901DC09221E
:103550000921002902DD481EC1B202E0501EC2B29C
:10356000092141EA0210024B187018460078704792
:10357000BA01002010B50446012C04D1810205488F
:10358000FDF711FD05E024B94FF480610148FDF716
:1035900008FD10BD000C014008B54FF48060ADF887
:1035A000000010208DF8030003208DF8020069460A
:1035B0000148FDF7E9FB08BD000C014010B54FF4D0
:1035C00000610348FDF7E4FC0446204610BD0000FE
:1035D000000C014010B50446012C04D1C10205487D
:1035E000FDF7E1FC05E024B94FF400610148FDF767
:1035F000D8FC10BD000C014008B54FF40060ADF8D8
:10360000000048208DF8030003208DF80200694671
:103610000148FDF7B9FB08BD000C014008B54FF4A7
:103620000060ADF8000014208DF8030003208DF831
:10363000020069460148FDF7A7FB08BD000C0140E8
:10364000704710B500F002F810BD00000CB5002066
:10365000019000903348006840F4803031490860A0
:1036600000BF3048006800F4003000900198401C12
:103670000190009818B90198B0F5A06FF1D12948D0
:10368000006800F4003010B10120009001E000203B
:1036900000900098012843D12348006840F01000B2
:1036A000214908600846006820F0030008600846C9
:1036B000006840F0020008601A48406819494860F4
:1036C0000846406848600846406840F480604860AA
:1036D0000846406820F47C1048600846406840F482
:1036E000E81048600846006840F08070086000BF3D
:1036F0000C48006800F000700028F9D009484068C4
:1037000020F00300074948600846406840F0020086
:10371000486000BF0348406800F00C000828F9D159
:103720000CBD0000001002400020024070B50024D3
:10373000002582480578002C7ED1FDF703FD8048E6
:1037400000788049097840EA01107F4908707F4875
:103750000078012833D17A4801787A480078FDF75B
:10376000EFF87949087000207849087076480078A9
:1037700000F00F0074490978091101EB810100EB99
:103780004100734908707348007800F00F007149D8
:103790000978091101EB810100EB41006D490870C6
:1037A0006D48007800F00F006B490978091101EBB2
:1037B000810100EB410068490870FDF775FD67481D
:1037C0000078012833D15E4801785E480078FFF721
:1037D0008DFE5D4908700020604908705A480078E5
:1037E00000F00F0058490978091101EB810100EB45
:1037F0004100574908705748007800F00F005549BC
:103800000978091101EB810100EB41005149087071
:103810005148007800F00F004F490978091101EB79
:10382000810100EB41004C490870FDF73DFD434824
:103830000078A84202DD00E000E00124012C79D1EB
:10384000FDF780FC464800784649097840EA0110B7
:103850003D4908703D480078012833D1404801783F
:1038600040480078FDF784F8374908700020374950
:1038700008703748007800F00F00354909780911C1
:1038800001EB810100EB4100314908702E480078BE
:1038900000F00F002C490978091101EB810100EBC0
:1038A00041002C4908702C48007800F00F002A498C
:1038B0000978091101EB810100EB410026490870EC
:1038C000FDF7F2FC25480078012833D1244801781F
:1038D00024480078FFF720FE1B49087000201F498C
:1038E00008701B48007800F00F0019490978091189
:1038F00001EB810100EB4100154908701248007886
:1039000000F00F0010490978091101EB810100EB6B
:103910004100104908701048007800F00F000E496F
:103920000978091101EB810100EB41000A49087097
:10393000FDF7BAFCFDF706FC70BD0000B6010020E3
:103940001602002015020020B4010020B70100205B
:10395000100200200F0200200E020020B8010020FB
:103960001802002017020020042808D14FF0E0219F
:10397000096941F004014FF0E022116107E04FF0C6
:10398000E021096921F004014FF0E0221161704744
:103990007047000010B504466FF00400FFF7E4FF25
:1039A000E11704EB5171C1F3C701074A11701046CA
:1039B000007800EB4001C1EBC0104FF6FF7101EA47
:1039C000C0000249088010BD680200206A02002081
:1039D00010B51348006840F001001149086008461E
:1039E0004068104908400E494860084600680E4982
:1039F00008400B4908600846006820F480200860F1
:103A00000846406820F4FE0048604FF41F008860BC
:103A1000FFF717FE4FF000600449086010BD00007A
:103A2000001002400000FFF8FFFFF6FE08ED00E086
:103A300010B54FF4A060FFF793FCFFF7D9FC48F6F0
:103A40009F41132000F068F8FFF7E0FB01210748D1
:103A5000FDF756FAFDF724FA4FF4165000F060FA1D
:103A6000FCF724FFFDF76CFD10BD000000023000E4
:103A700010B501211C4800F092F878B301201B49D1
:103A800008701B480078401C1949087019480078D4
:103A9000401C1849087018480078401C16490870E6
:103AA0001648007801280FD01548007801280BD05F
:103AB00014480078012807D013480078012803D063
:103AC00012480078012804D111480088401C104990
:103AD000088010480088401C0E49088001210248D7
:103AE00000F04EF810BD0000000800406002002009
:103AF000610200206202002063020020090200200F
:103B00000A0200200B0200200C0200200D020020FF
:103B100064020020660200207FB505460C460121A4
:103B20000420FFF745FCADF80850ADF80440002034
:103B3000ADF80A00ADF8060001A9104800F04AF8F7
:103B4000012211460D4800F03BF801210B4800F01E
:103B500017F81E208DF8000002208DF801000320C8
:103B60008DF8020001208DF803006846FFF7C0FBC6
:103B70000121024800F007F87FBD00000008004066
:103B8000CA430282704721B1028842F001020280DA
:103B900004E002884FF6FE731A400280704730B589
:103BA0000246002000230024158A05EA01039589B6
:103BB00005EA010413B10CB1012000E0002030BD82
:103BC0001AB183890B43838102E083898B4383810C
:103BD00070470000002202881D4B98420ED01D4BFA
:103BE00098420BD0B0F1804F08D01B4B984205D0C3
:103BF0001A4B984202D01A4B984204D14FF68F7359
:103C00001A404B881A43174B984207D0164B9842DC
:103C100004D04FF6FF431A40CB881A4302808B88AA
:103C200083850B8803850A4B98420BD0094B984239
:103C300008D00E4B984205D00D4B984202D00D4B48
:103C4000984201D10B7A03860123838270470000DA
:103C5000002C0140003401400004004000080040F6
:103C6000000C0040001000400014004000400140E3
:103C700000440140004801407048007870490978CC
:103C800040EA01106F4908706F4800786F49097861
:103C900040EA01106E4908706E4800786E49097854
:103CA00040EA01106D4908706D4800786D49097847
:103CB00040EA01106C49087000206C4908706C489B
:103CC000007860490978884202DD01206749087060
:103CD000674800785B490978884208D165480078D0
:103CE0005B490978884202DB01206049087060481E
:103CF00000785A490978884202DD00205B49087043
:103D00005B48007855490978884208D159480078BD
:103D100055490978884202DB0020544908704F4811
:103D2000007848490978884232DA01204F49087002
:103D30004F48007849490978884202DD00204B4904
:103D400008704B48007845490978884208D14948AD
:103D5000007845490978884202DB00204349087011
:103D60004348007837490978884202DD01203F49FD
:103D700008703F48007833490978884208D13D48A7
:103D8000007833490978884202DB012037490870FE
:103D9000324800782B490978884238D13248007877
:103DA0002B490978884232DA0120304908703048BE
:103DB00000782A490978884202DD00202B490870E2
:103DC0002B48007825490978884208D1294800788D
:103DD00025490978884202DB0020244908702448DC
:103DE000007818490978884202DD01201F490870CF
:103DF0001F48007813490978884208D11D48007887
:103E000013490978884202DB0120184908701348D9
:103E100000780C490978884208D1134800780C4989
:103E20000978884202D101201049087012480078B0
:103E3000012801D10D49087070470000CF01002012
:103E4000CA010020BB010020D0010020CB010020CE
:103E5000BC010020D1010020CC010020BD010020C8
:103E6000D2010020CD010020BE010020FE01002073
:103E7000100200200F0200200502002010B50121D1
:103E8000244800F0C9F830B1224800F08DF9012132
:103E9000204800F09DF808211E4800F0BDF830B120
:103EA0001C4800F081F908211A4800F091F802211D
:103EB000184800F0B1F830B1164800F075F9022149
:103EC000144800F085F840F22551124800F0B1F88E
:103ED000F8B120210F4800F07BF840F225510D4841
:103EE00000F07FF80B4800F05FF9C4B221460948A2
:103EF00000F05FF9084809490978445407480078F8
:103F0000401C06490870084600783C2801DD002066
:103F1000087010BD00380140800200206C020020B3
:103F200010B586B0044601210420FFF751FA0121A3
:103F30008803FFF74DFA4FF40070ADF8140003202A
:103F40008DF8160018208DF8170005A91E48FCF7FB
:103F50001BFF4FF48060ADF8140004208DF81700AB
:103F600005A91948FCF710FF01940020ADF80800DE
:103F7000ADF80A00ADF80C00ADF810000C20ADF85B
:103F80000E0001A9114800F0A3F801210F4800F02C
:103F900037F840210D4800F01BF8012240F225516E
:103FA0000A4800F070F825208DF8000000208DF8F8
:103FB00001008DF8020001208DF803006846FFF72C
:103FC00097F906B010BD000000080140003801401C
:103FD00001F40072B2F5007F00D100BFCA43028035
:103FE000704710B50022002340F66A14A14200D1A8
:103FF00000BF0A1201249440A3B2DC43048010BD28
:1040000021B1828942F40052828104E082894DF616
:10401000FF731A408281704702460020B1F5007F8D
:1040200000D100BF13880B400BB1012000E000203D
:10403000704770B50246002400230025002040F69A
:104040006A16B14200D100BFC1F3421501F01F034F
:10405000012606FA03F3012D02D19689334006E0CA
:10406000022D02D1168A334001E0968A33400C12A9
:10407000012606FA04F41688344013B10CB101206D
:1040800000E0002070BDF0B50346002400260025A6
:10409000002040F66A17B94200D100BF1846C1F3AC
:1040A000421401F01F06012707FA06F5012C01D181
:1040B0000C3004E0022C01D1103000E014301AB1B1
:1040C00007682F43076002E00768AF430760F0BD51
:1040D0002DE9F04786B005460E460024A24600BFF3
:1040E000A1460027B08900B100BF2F462C8A4CF6AC
:1040F000FF700440F08804432C82AC894EF6F31024
:104100000440B08831890843718908430443AC8175
:10411000AC8A4FF6FF400440B0890443AC8201A84A
:10412000FFF77AF91F48874202D1DDF810A001E0BD
:10413000DDF80CA0A88900F4004040B10AEBCA00E9
:1041400000EB0A1031684900B0FBF1F807E00AEB18
:10415000CA0000EB0A1031688900B0FBF1F8642056
:10416000B8FBF0F004012009642101FB1089A88943
:1041700000F4004040B1322000EBC900B0FBF1F088
:1041800000F00700044308E0322000EB091064212E
:10419000B0FBF1F000F00F0004432C8106B0BDE845
:1041A000F08700000038014001468888C0F308000D
:1041B0007047C1F308028280704700BFFEE702E04B
:1041C00008C8121F08C1002AFAD1704770470020A2
:1041D00001E001C1121F002AFBD170470146114ABC
:1041E00012884A434FF0E0235A6100229A611A462E
:1041F000126942F001021A6100BF4FF0E02210691B
:1042000000F001021AB100F48032002AF5D04FF01C
:10421000E022126922F001024FF0E0231A6100222D
:104220009A6170476A0200200146114A12784A4397
:104230004FF0E0235A6100229A611A46126942F057
:1042400001021A6100BF4FF0E022106900F0010284
:104250001AB100F48032002AF5D04FF0E022126942
:1042600022F001024FF0E0231A6100229A617047A8
:104270006802002030B50546012013490860134943
:10428000C1F8BC011049091D0860402000F042F847
:1042900001200E49C1F8B801C02000F03BF800240D
:1042A00003E0284600F036F8641C102CF9D30120F6
:1042B0000549091D08608C2000F02CF801200349F5
:1042C000C1F8B80130BD0000B48121420080214214
:1042D00030B505460C4601200C4908600C49C1F870
:1042E000BC010A49091D0860442000F013F80120B0
:1042F0000749C1F8B801284600F00CF8204600F044
:1043000009F801200149091D086030BDB48121422E
:104310000080214200220E4B1A60002115E000228D
:104320000B4B1B1D1A6000F0010222B10122084B49
:104330001B1F1A6003E00022054B1B1F1A6001229D
:10434000034B1B1D1A604010491C0829E7D3704716
:10435000B88121424820FFF71DFBFFF769FBFCF7FE
:10436000BDFE00202F4908602F49C1F898012D4952
:1043700008390860091F0860091F086050E02B48D1
:104380000078002839D1FCF73BFE702028490870DE
:1043900060202849087018202749087010202749F4
:1043A00008700020264908702648007A00F0F700BF
:1043B0002449087208202449087001202349087004
:1043C000FCF7C0FE224800780A2190FBF1F201FBC5
:1043D0001200204908701E4800780A2190FBF1F075
:1043E0001D490870FEF710FC0E48001F00680128E8
:1043F00001D1FCF7F7FBFDF7D9FA184800780B2834
:1044000002DD00201549087008480078012801D114
:10441000FDF788FBFEF7BEFBFFF72EFCFDF7A6F8C5
:10442000ADE700009C81214200802142060200206D
:1044300020020020290200202A0200202B02002056
:104440002C020020700200202D0200200802002013
:10445000F8010020EF010020EE010020B60100204D
:104460004154000084440008000000207002000055
:10447000C80600081C460008700200205004000016
:10448000CE410008C11814CD4C2243CD4C1A433301
:10449000B312439A990B43CDCC04041812FC42CDBD
:1044A000CCF0426666E5429A99DA423333D0081A74
:1044B000C6081ABD081AB4081AAC1C23A4421A9DD7
:1044C000281A95101A8F081A881C1A82041A790C57
:1044D0001A6E201A64041A5A0C1A50281A48181A0C
:1044E0003F281A37081A2F101A280C1A21201A1AD6
:1044F0000C1A14041A0E041A08101A02041BFA41AA
:104500007C1809413333E7419A99DD0C1AD404230E
:10451000CC411AC4081ABC141EB5416666AE101A06
:10452000A8101AA0281A9B081A94081A8F181A8A19
:104530000C1A841C1A800C1A760C1A6C041A640467
:104540001A5C041A54041A4C041A441C1A3E241A05
:10455000384C1A31381A2B141A24141A1E101A192E
:104560000C1A140C1A0E0C1A090C1A04081A010859
:1045700023FC401EF0409A99E9081AE0081ED94031
:104580003333D3081AC9081BC340981D406666B66A
:104590000C1AB30C1AAC0C1AA6281AA00C1A9C0CF4
:1045A0001A96181A930C1A8C301A89101A861C1A2B
:1045B000800C1A79181A73181A6C141A66141A6077
:1045C00010155340604442082D01020304043808CA
:1045D000060708090204061401151403010712094D
:1045E0000A13050A32040220061302031A056601A3
:1045F000241012C0C1C2C3C4C5C6C7C8C9CACBCC67
:10460000CDCECF3F1218100C36803C8019802D8003
:0C4610002F803805133F803D8000000023
:0400000508000131BD
:00000001FF
